:020000040800F2
:1000000000500020C1200008092100080921000833
:10001000092100080921000809210008000000004A
:10002000000000000000000000000000092100089E
:1000300009210008000000000921000853450008BC
:1000400009210008092100080921000809210008E8
:100050000921000809210008DD450008E3450008E2
:10006000E9450008EF450008F545000809210008AA
:1000700009210008092100080921000809210008B8
:1000800009210008092100080921000809210008A8
:10009000092100080921000809210008FB45000882
:1000A00009210008751900080921000889190008AC
:1000B0008D190008A1190008B519000809210008C8
:1000C0000921000809210008092100080921000868
:1000D00009210008E95100080152000819520008DE
:1000E000114600089D4B000809210008000000008F
:1000F0000000000000000000000000000000000000
:0C01000000000000000000005FF808F1A3
:100110004FF0FF0C1CEAD0521EBF1CEAD15392EAEA
:100120000C0F93EA0C0F6FD01A4480EA010C4002C6
:1001300018BF5FEA41211ED04FF0006343EA501020
:1001400043EA5111A0FB01310CF00040B1F5000F62
:100150003EBF490041EAD3715B0040EA010062F111
:100160007F02FD2A1DD8B3F1004F40EBC25008BFFB
:1001700020F00100704790F0000F0CF0004C08BF19
:1001800049024CEA502040EA51207F3AC2BFD2F1E6
:10019000FF0340EAC250704740F400004FF00003F4
:1001A000013A5DDC12F1190FDCBF00F0004070472E
:1001B000C2F10002410021FA02F1C2F1200200FA6C
:1001C00002FC5FEA310040F1000053EA4C0308BF33
:1001D00020EADC70704792F0000F00F0004C02BF84
:1001E000400010F4000F013AF9D040EA0C0093F0FF
:1001F000000F01F0004C02BF490011F4000F013B59
:10020000F9D041EA0C018FE70CEAD15392EA0C0FC6
:1002100018BF93EA0C0F0AD030F0004C18BF31F031
:10022000004CD8D180EA010000F00040704790F007
:10023000000F17BF90F0004F084691F0000F91F0AB
:10024000004F14D092EA0C0F01D142020FD193EA71
:100250000C0F03D14B0218BF084608D180EA0100F9
:1002600000F0004040F0FE4040F40000704740F0D5
:10027000FE4040F44000704781F0004102E000BFC2
:1002800083F0004330B54FEA41044FEA430594EA56
:10029000050F08BF90EA020F1FBF54EA000C55EA91
:1002A000020C7FEA645C7FEA655C00F0E2804FEA62
:1002B0005454D4EB5555B8BF6D420CDD2C4480EA44
:1002C000020281EA030382EA000083EA010180EA74
:1002D000020281EA0303362D88BF30BD11F0004FC2
:1002E0004FEA01314FF4801C4CEA113102D04042F8
:1002F00061EB410113F0004F4FEA03334CEA133333
:1003000002D0524263EB430394EA050F00F0A7804A
:10031000A4F10104D5F1200E0DDB02FA0EFC22FA45
:1003200005F2801841F1000103FA0EF2801843FA39
:1003300005F359410EE0A5F120050EF1200E012A2A
:1003400003FA0EFC28BF4CF0020C43FA05F3C01868
:1003500051EBE37101F0004507D54FF0000EDCF1E1
:10036000000C7EEB00006EEB0101B1F5801F1BD38A
:10037000B1F5001F0CD349085FEA30004FEA3C0C8E
:1003800004F101044FEA445212F5800F80F09A8084
:10039000BCF1004F08BF5FEA500C50F1000041EB88
:1003A000045141EA050130BD5FEA4C0C404141EB8C
:1003B0000101013C28BFB1F5801FE9D291F0000F87
:1003C00004BF01460020B1FA81F308BF2033A3F136
:1003D0000B03B3F120020CDA0C3208DD02F1140C2D
:1003E000C2F10C0201FA0CF021FA02F10CE002F168
:1003F0001402D8BFC2F1200C01FA02F120FA0CFC61
:10040000DCBF41EA0C019040E41AA2BF01EB0451A9
:10041000294330BD6FEA04041F3C1CDA0C340EDCA7
:1004200004F11404C4F1200220FA04F001FA02F3EA
:1004300040EA030021FA04F345EA030130BDC4F1A8
:100440000C04C4F1200220FA02F001FA04F340EA9D
:100450000300294630BD21FA04F0294630BD94F04E
:10046000000F83F4801306BF81F480110134013D35
:100470004EE77FEA645C18BF7FEA655C29D094EAA6
:10048000050F08BF90EA020F05D054EA000C04BF24
:100490001946104630BD91EA030F1EBF002100200F
:1004A00030BD5FEA545C05D14000494128BF41F0AE
:1004B000004130BD14F580043CBF01F5801130BD12
:1004C00001F0004545F0FE4141F470014FF000009D
:1004D00030BD7FEA645C1ABF194610467FEA655C4E
:1004E0001CBF0B46024650EA013406BF52EA0335F0
:1004F00091EA030F41F4002130BD00BF90F0000FDE
:1005000004BF0021704730B54FF4806404F1320419
:100510004FF000054FF0000150E700BF90F0000FD2
:1005200004BF0021704730B54FF4806404F13204F9
:1005300010F0004548BF40424FF000013EE700BFC9
:1005400042004FEAE2014FEA31014FEA02701FBF59
:1005500012F07F4393F07F4F81F06051704732F08B
:100560007F4208BF704793F07F4F04BF41F40021E2
:10057000704730B54FF4607401F0004521F0004140
:100580001CE700BF50EA010208BF704730B54FF0CA
:1005900000050AE050EA010208BF704730B511F0CB
:1005A000004502D5404261EB41014FF4806404F103
:1005B00032045FEA915C3FF4D8AE4FF003025FEA89
:1005C000DC0C18BF03325FEADC0C18BF033202EB0D
:1005D000DC02C2F1200300FA03FC20FA02F001FA67
:1005E00003FE40EA0E0021FA02F11444BDE600BF0A
:1005F00070B54FF0FF0C4CF4E06C1CEA11541DBFB9
:100600001CEA135594EA0C0F95EA0C0F00F0DEF883
:100610002C4481EA030621EA4C5123EA4C5350EA68
:10062000013518BF52EA033541F4801143F48013B9
:1006300038D0A0FB02CE4FF00005E1FB02E506F04A
:100640000042E0FB03E54FF00006E1FB03569CF09F
:10065000000F18BF4EF0010EA4F1FF04B6F5007FA5
:1006600064F5407404D25FEA4E0E6D4146EB060617
:1006700042EAC62141EA55514FEAC52040EA5E50A0
:100680004FEACE2EB4F1FD0C88BFBCF5E06F1ED84A
:10069000BEF1004F08BF5FEA500E50F1000041EB81
:1006A000045170BD06F0004646EA010140EA02002E
:1006B00081EA0301B4EB5C04C2BFD4EB0C0541EA50
:1006C000045170BD41F480114FF0000E013C00F365
:1006D000AB8014F1360FDEBF002001F0004170BD89
:1006E000C4F10004203C35DA0C341BDC04F11404A2
:1006F000C4F1200500FA05F320FA04F001FA05F22E
:1007000040EA020001F0004221F0004110EBD370FA
:1007100021FA04F642EB06015EEA430E08BF20EA26
:10072000D37070BDC4F10C04C4F1200500FA04F3C9
:1007300020FA05F001FA04F240EA020001F000415B
:1007400010EBD37041F100015EEA430E08BF20EACE
:10075000D37070BDC4F1200500FA05F24EEA020E16
:1007600020FA04F301FA05F243EA020321FA04F045
:1007700001F0004121FA04F220EA020000EBD370FC
:100780005EEA430E08BF20EAD37070BD94F0000FFC
:100790000FD101F00046400041EB010111F4801F30
:1007A00008BF013CF7D041EA060195F0000F18BFE1
:1007B000704703F00046520043EB030313F4801F1D
:1007C00008BF013DF7D043EA0603704794EA0C0FD7
:1007D0000CEA135518BF95EA0C0F0CD050EA4106ED
:1007E00018BF52EA4306D1D181EA030101F000416A
:1007F0004FF0000070BD50EA410606BF1046194692
:1008000052EA430619D094EA0C0F02D150EA01369D
:1008100013D195EA0C0F05D152EA03361CBF1046DE
:1008200019460AD181EA030101F0004141F0FE417D
:1008300041F470014FF0000070BD41F0FE4141F401
:10084000780170BD70B54FF0FF0C4CF4E06C1CEA01
:1008500011541DBF1CEA135594EA0C0F95EA0C0FB6
:1008600000F0A7F8A4EB050481EA030E52EA033571
:100870004FEA013100F088804FEA03334FF0805592
:1008800045EA131343EA12634FEA022245EA1115BF
:1008900045EA10654FEA00260EF000419D4208BF70
:1008A000964244F1FD0404F5407402D25B084FEA1D
:1008B0003202B61A65EB03055B084FEA32024FF4C9
:1008C00080104FF4002CB6EB020E75EB030E22BF26
:1008D000B61A754640EA0C005B084FEA3202B6EBE6
:1008E000020E75EB030E22BFB61A754640EA5C0095
:1008F0005B084FEA3202B6EB020E75EB030E22BF25
:10090000B61A754640EA9C005B084FEA3202B6EB25
:10091000020E75EB030E22BFB61A754640EADC00E4
:1009200055EA060E18D04FEA051545EA16754FEA46
:1009300006164FEAC30343EA52734FEAC2025FEA64
:100940001C1CC0D111F4801F0BD141EA00014FF0F3
:1009500000004FF0004CB6E711F4801F04BF0143C4
:100960000020B4F1FD0C88BFBCF5E06F3FF6AFAEE0
:10097000B5EB030C04BFB6EB020C5FEA500C50F170
:10098000000041EB045170BD0EF0004E4EEA1131F3
:1009900014EB5C04C2BFD4EB0C0541EA045170BDFA
:1009A00041F480114FF0000E013C90E645EA060E3E
:1009B0008DE60CEA135594EA0C0F08BF95EA0C0F6C
:1009C0003FF43BAF94EA0C0F0AD150EA01347FF4B4
:1009D00034AF95EA0C0F7FF425AF104619462CE78B
:1009E00095EA0C0F06D152EA03353FF4FDAE1046EE
:1009F000194622E750EA410618BF52EA43067FF43F
:100A0000C5AE50EA41047FF40DAF52EA43057FF4CE
:100A1000EBAE12E74FF0FF3C06E000BF4FF0010CD9
:100A200002E000BF4FF0010C4DF804CD4FEA410C3D
:100A30007FEA6C5C4FEA430C18BF7FEA6C5C1BD00A
:100A400001B050EA410C0CBF52EA430C91EA030F8B
:100A500002BF90EA020F0020704710F1000F91EAE8
:100A6000030F58BF994208BF90422CBFD8176FEAB6
:100A7000E37040F0010070474FEA410C7FEA6C5C84
:100A800002D150EA013C07D14FEA430C7FEA6C5C8B
:100A9000D6D152EA033CD3D05DF8040B704700BFB7
:100AA0008446104662468C461946634600E000BF05
:100AB00001B5FFF7B7FF002848BF10F1000F01BDD7
:100AC0004DF808EDFFF7F4FF0CBF012000205DF8A2
:100AD00008FB00BF4DF808EDFFF7EAFF34BF012027
:100AE00000205DF808FB00BF4DF808EDFFF7E0FFC0
:100AF00094BF012000205DF808FB00BF4DF808ED11
:100B0000FFF7CEFF94BF012000205DF808FB00BF77
:100B10004DF808EDFFF7C4FF34BF012000205DF859
:100B200008FB00BF4FEA410C7FEA6C5C02D150EA3F
:100B3000013C0AD14FEA430C7FEA6C5C02D152EAD5
:100B4000033C02D14FF0000070474FF001007047A6
:100B50004FEA410212F5001215D211D56FF47873E5
:100B6000B3EB625212D94FEAC12343F0004343EA88
:100B7000505311F0004F23FA02F018BF4042704763
:100B80004FF00000704750EA013005D111F00040ED
:100B900008BF6FF0004070474FF00000704700BF83
:100BA0004A0011D212F5001211D20DD56FF47873EC
:100BB000B3EB62520ED44FEAC12343F0004343EA41
:100BC000505323FA02F070474FF00000704750EA8C
:100BD000013002D14FF0FF3070474FF000007047F6
:100BE0004FEA4102B2F1E04324BFB3F5001CDCF14F
:100BF000FE5C0DD901F0004C4FEAC0024CEA507087
:100C0000B2F1004F40EB830008BF20F001007047B5
:100C100011F0804F21D113F13872BCBF01F00040B8
:100C2000704741F480114FEA5252C2F11802C2F1EA
:100C3000200C10FA0CF320FA02F018BF40F001006B
:100C40004FEAC1234FEAD32303FA0CFC40EA0C001D
:100C500023FA02F34FEA4303CCE77FEA625307D15A
:100C600050EA01331EBF4FF0FE4040F44000704791
:100C700001F0004040F0FE4040F40000704700BF2B
:100C800080F0004002E000BF81F0004142001FBF41
:100C90005FEA410392EA030F7FEA226C7FEA236C4A
:100CA0006AD04FEA1262D2EB1363C1BFD21841403F
:100CB00048404140B8BF5B42192B88BF704710F0D5
:100CC000004F40F4000020F07F4018BF404211F078
:100CD000004F41F4000121F07F4118BF494292EAE0
:100CE000030F3FD0A2F1010241FA03FC10EB0C000C
:100CF000C3F1200301FA03F100F0004302D5494299
:100D000060EB4000B0F5000F13D3B0F1807F06D345
:100D100040084FEA310102F10102FE2A51D2B1F13D
:100D2000004F40EBC25008BF20F0010040EA030032
:100D30007047490040EB0000013A28BFB0F5000FB2
:100D4000EDD2B0FA80FCACF1080CB2EB0C0200FA68
:100D50000CF0AABF00EBC25052421843BCBFD040B7
:100D60001843704792F0000F81F4000106BF80F431
:100D700000000132013BB5E74FEA41037FEA226CF4
:100D800018BF7FEA236C21D092EA030F04D092F0BF
:100D9000000F08BF0846704790EA010F1CBF0020F3
:100DA000704712F07F4F04D1400028BF40F0004050
:100DB000704712F100723CBF00F50000704700F070
:100DC000004343F0FE4040F4000070477FEA226297
:100DD00016BF08467FEA23630146420206BF5FEA68
:100DE000412390EA010F40F4800070474FF0000368
:100DF00004E000BF10F0004348BF40425FEA000C2F
:100E000008BF704743F0964301464FF000001CE0D6
:100E100050EA010208BF70474FF000030AE000BF2C
:100E200050EA010208BF704711F0004302D540426A
:100E300061EB41015FEA010C02BF844601460020DC
:100E400043F0B64308BFA3F18053A3F50003BCFAF7
:100E50008CF2083AA3EBC25310DB01FA02FC6344A4
:100E600000FA02FCC2F12002BCF1004F20FA02F2AB
:100E700043EB020008BF20F00100704702F120029E
:100E800001FA02FCC2F1200250EA4C0021FA02F2FF
:100E900043EB020008BF20EADC7070474FEA4002D3
:100EA000B2F1FE4F0FD34FF09E03B3EB12620DD998
:100EB0004FEA002343F0004310F0004F23FA02F002
:100EC00018BF404270474FF00000704712F1610FA9
:100ED00001D1420205D110F0004008BF6FF0004080
:100EE00070474FF00000704710F8012B11F8013BDC
:100EF000012A28BF9A42F7D0D01A7047034613F848
:100F0000012B002AFBD1181A0138704710B5054C87
:100F1000237833B9044B13B10448AFF300800123A5
:100F2000237010BD000200200000000068C100080E
:100F300008B5034B1BB103490348AFF3008008BD5C
:100F4000000000000402002068C1000810B594B041
:100F50000446102200210DA80AF0ECFE1422002104
:100F60000DEB02000AF0E6FE1022002101A80AF0B3
:100F7000E1FE0123002C0CBF4FF480324FF4A0227D
:100F800002240A930E934FF480330B92CDE9114360
:100F900000224FF4E0130AA80C92139301F08CFF87
:100FA00010B1002014B010BD0F23CDE905344FF46B
:100FB00080630790CDE90830214605A802F052F978
:100FC0000028EED1122301934FF40043CDE9033002
:100FD00001A802F021FAB0FA80F04009E2E730B54A
:100FE00095B0142200210CA80AF0A4FE14221025AA
:100FF00000210DEB02000AF09DFE2A46002101A807
:101000000AF098FE03230F950A930225002301247A
:10101000CDE911530B934FF420130AA80E941393A8
:1010200001F04AFF10B1002015B030BD0F23CDE90B
:1010300005354FF480630790CDE90830214605A8B7
:1010400002F010F90028EED112234FF480410193F1
:101050004FF4800301A8CDE9031302F0DDF9B0FAE3
:1010600080F04009E0E7000008B50020FFF76EFFC0
:1010700060B90120FFF76AFF40B9FFF7B0FF28B958
:10108000BDE80840E121024803F08EBD08BD00BF65
:10109000C0C50008B0F86230013303F03F03A0F888
:1010A0006230B0F86230B0F85E009BB298424FF008
:1010B000FF3018BF00207047B0F8F430B0F8F000EF
:1010C000181A00F03F007047B0F8F430B0F8F02084
:1010D0009BB293421ABFD0F8E830985C4FF0FF30D3
:1010E000704713B50DF10701044603F0A3FF90B953
:1010F000B4F86030B4F85C20013303F03F0393424E
:1011000009D0B4F860209DF80700616D92B29BB2DF
:101110008854A4F8603002B010BD0000012370B5FF
:101120000374B0F9E230044601330E4600F1940531
:1011300008D190F8F8302BB1002380F8F830284619
:1011400003F0DEFFB4F8F2104B1C03F03F03B4F8D9
:10115000F62092B29342FAD0D4F8EC2028465654A6
:10116000A4F8F23003F054FF18B92846024903F0FE
:10117000A3FF012070BD00BF95100008037C33B1B0
:10118000B0F8F220B0F8F6309BB29A42FAD170472C
:1011900000F11103914208BF4FF0FF31C0F8E83071
:1011A0000023A0F8E02000F15102A0F8F430C0E9DB
:1011B0003B23A0F8E210A0F8F63070474FF0000C87
:1011C00008B54FF47A73C0E901C3114B4F2903608E
:1011D0000AD8104B33F911104F2A0FD80D4B33F9A1
:1011E0001220FFF7D5FF08BD51390F2903D80A4B4C
:1011F00053F82110EDE74FF0FF31EDE7513A0F2A98
:1012000003D8054B53F82220E8E74FF0FF32E8E718
:1012100070C7000864C6000824C6000870B54FF403
:101220007A7316460022C0E90123164B0446036078
:101230004FF6FF73A0F8E230134B0D46984214D1DD
:10124000124B9A8AA0F8E2205B8AA0F8E030012EC7
:1012500004BF4FF6FF73A4F8E2302046B4F9E02053
:10126000B4F9E210FFF794FF70BD0949284603F076
:1012700067FC0849A4F8E200284603F061FCA4F8E2
:10128000E000E4E770C700081C02002064C6000804
:1012900000C5000860C50008B0F9E23010B50133A0
:1012A00004460ED103685B69984794F8F83043B957
:1012B000012304F1940084F8F830BDE8104003F0F5
:1012C0002FBF10BD02F00703023BDBB2042B2DE958
:1012D000F7430E46C0F8FC1096BF1E490024CC5CB4
:1012E00002F03003302B054680F8F92026D14FF468
:1012F000C067013412F0080F14BF4FF400594FF0CB
:101300000009082C21D0092C21D04FF4C1711248BA
:1013100003F04AFC05F1940831463B46224640461C
:10132000CDF8009003F05EFE2846FFF7B5FF40467B
:101330000A4903B0BDE8F04303F098BE12F020075D
:101340001CBF4FF480670134D4E70024E2E74FF478
:101350008054DFE762C7000804C70008E3100008F4
:1013600010B50446FFF798FFB4F8F420B4F8F03055
:1013700092B29A4217BFD4F8E8204FF0FF30D05C09
:1013800001331CBF03F03F03A4F8F03010BD000090
:10139000002202490248FFF741BF00BF0038014068
:1013A0001C020020836810B504462BB103220146BD
:1013B00098470023C4E90233204610BD836810B566
:1013C000044613B1032201469847204610BD4B1E28
:1013D000032B9ABF880004384FF0FF30704700009D
:1013E0000139435C2BB1022907D8054B33F81100B2
:1013F0007047032901D8034BF8E74FF0FF307047DF
:10140000EEC70008F4C700082DE9F04104460F4676
:10141000FFF7DDFF431C054604D140F24D113E4865
:1014200003F0C2FB7E1E032E28D83C4B13F8068027
:1014300039462046FFF7D4FF013004D140F257115E
:10144000354803F0B1FB04EB07173B6E58373BB14F
:101450006FEA080223691A61DA6842EA0802DA6070
:1014600004EB46039B88013B0B2B4BD8DFE803F0D2
:101470001B1B1B1B0E0E1B1B4C4C4C284FF4A97145
:1014800025484FF0FF3803F08FFBD1E7A35D2946D5
:1014900004F110001BB1BDE8F04102F05FBCBDE8F3
:1014A000F04102F023BCA35D294604F110001BB1FA
:1014B000BDE8F04102F03CBCBDE8F04102F0FABBEF
:1014C000294604F1100002F013FC032E8CBF4FF0EC
:1014D000FF32134B204698BF9A5725691146FFF7F4
:1014E0007FFF2B6A1843BB6828625BB1013A032A6D
:1014F0008EBF4FF0FF32094B9A5CD3432B61EB68F0
:101500001343EB60BDE8F081294604F11000BDE80B
:10151000F04102F0EDBB00BF90C70008FCC7000817
:1015200000C80008036E10B5044653B16FF0010205
:1015300050F8103F1A61DA6842F00102DA6002F0F6
:1015400037F920460121FFF75FFF20460221FFF710
:101550005BFF20460321FFF757FF2046BDE8104000
:101560000421FFF751BF00002DE9F0438DB00E4676
:10157000044617469846FFF72AFF411C054604D14A
:1015800040F24D21504803F00FFB013E04EB4603AF
:101590009F804FF6FF7305932369CDB95B6B0020E5
:1015A0004FF6FF7206930123CDE90900CDE901232F
:1015B000CDE90300079008900B900C2F1ED8DFE8B0
:1015C00007F01010163C3F414A4C4E50585B5D00EE
:1015D000042D01D19B6BE2E7082D0CBFDB6B1B6C6C
:1015E000DDE705902A4605A904F1100004E0102368
:1015F0002A46059305A9E01802F00EFAB8F1FF3F5C
:1016000018D0404602F00AFEA84256D140462F4963
:10161000093F03F063FA032F05D8404600F0F4FCBD
:10162000002100F013FE4046284903F09BFAC0F366
:101630000050A0550DB0BDE8F08320230593D1E7FD
:101640003023FBE760232A4605A904F11000059327
:1016500002F00EFAD2E77023F5E75023EEE74023BD
:10166000ECE701902A4601A904F1100002F08AFA81
:10167000C4E702230193F5E70A23FBE704F110090D
:1016800001A92A460190484602F07CFA032E88BF41
:101690004FF0FF314FF00C0298BF0D4B204698BF22
:1016A000995704EB41035A800223CDE90133FFF738
:1016B0008EFE01A902464846D8E740F2B72102480B
:1016C00003F072FAAFE700BF90C7000854C20008E9
:1016D00000C80008013903299ABF00EB4100808847
:1016E000002070470B4B98420ED0B0F1804F0DD0C8
:1016F000A3F5943398420BD04FF6FF73064A9042FD
:1017000014BF18460320704700207047012070471F
:1017100002207047002C014000080040014670B5CF
:10172000044651F8100FFFF7DDFF0546084603F0A9
:10173000F3FA0023084A04F1580642F82530E36022
:1017400004F1A805B54204D0103D2846FFF736FE47
:10175000F8E7204670BD00BF1C030020F8B5002349
:10176000044603660367C0F88030C0F89030C0F8C4
:10177000A03008460D46FFF7B5FF4FF6FF739842BD
:10178000064603D12F211E4803F00EFA1D4A04F12C
:101790000C0342F8263000230E2204F110062561C6
:1017A0003046C4E90C33C4E90E33C4E91033C4E94C
:1017B000142384F82C30A36484F84C3084F84D3022
:1017C000E46003F065FA04F1580504F1A80728461F
:1017D0001035FFF7E7FDBD42F9D100234FF6FF7248
:1017E000C4E90033C4E90632C4E90833A360636185
:1017F00080233046A36202F0C9F82046F8BD00BF3E
:1018000090C700081C03002030B50546002487B0AF
:101810001422002101A80AF08DFA694601A800945B
:1018200001F0DCFD286903F019FB012809D002282A
:1018300015D00E4840F2FF4103F0B6F9204607B03C
:1018400030BD049C01F0AAFDB4F5C06F05D00AD8E4
:1018500024F48074B4F5806FF1D14000EFE7059C6B
:1018600001F0ACFDF0E7B4F5E06FF5E790C70008D4
:10187000012A38B505460C4607D0022A12D004B119
:10188000013C2B69DC62EC6138BDFFF7BDFF084904
:10189000B0FBF1F044432B69210C99620131B4FB98
:1018A000F1F4ECE7FFF7B0FFB0FBF4F4F3E700BFAF
:1018B00040420F002DE9F04180461D461446FFF7D7
:1018C00086FDD8F8103007469E6A431C06F10106D3
:1018D00004D140F2F621254803F066F9822D34D078
:1018E0001ED8102D0BD865B1D8F81030DA6A02FB7B
:1018F00004420124AC40013CB2FBF4F401E0812D30
:1019000019D04FF6FF71D8F81030DA6A8A4203D145
:10191000B4F5803F08BF1446F7B95C63BDE8F081B9
:10192000832DEED1D8F81030DA6A02FB0444642229
:10193000B4FBF2F4E5E74046FFF766FF0C4AB0FB64
:10194000F2F04443B4FBF6F4DBE74046FFF75CFFFC
:101950007443B0FBF4F4D4E7042F01D19C63DDE7BA
:10196000082F0CBFDC631C64D8E700BF90C70008D9
:1019700040420F00034B186810B1043001F02CBF37
:10198000704700BF1C030020FFF7F4BF034B5868EB
:1019900010B1043001F020BF704700BF1C030020CD
:1019A000034B986810B1043001F016BF704700BFB8
:1019B0001C030020034BD86810B1043001F00CBFA9
:1019C000704700BF1C030020826810B50AB90AF0F6
:1019D00053F9C368BDE810401847000010B504462D
:1019E00020B940F22641064803F0DEF8204603F015
:1019F0004DF90068036E13B15830FFF7E5FF10BDD5
:101A000090C70008FFF7EABF38B5054620B940F295
:101A10003941104803F0C8F82B7F013B072B11D840
:101A2000DFE803F0150410111010101302242846EB
:101A300003F02CF9240100685834204483680BB16A
:101A4000FFF7C2FF38BD0324F1E70424EFE70124C8
:101A5000EDE700BF90C70008FFF7D6BFFFF7D4BF80
:101A6000F8B505460E4617460024BC4207D02B6841
:101A700028461B68315D984708B10134F5E72046D8
:101A8000F8BD70B505460C46084649B1FFF736FA71
:101A90002B68024621462846BDE870405B6818471F
:101AA00070BD03688A685B680968184708B5FFF766
:101AB000E8FF08BD03681B681847000008B5024925
:101AC000FFF7DFFF08BD00BF04C8000838B50546B2
:101AD000FFF7D7FF04462846FFF7F0FF204438BD44
:101AE00038B50546FFF7CDFF04462846FFF7E6FF69
:101AF000204438BD0023012A98BF0A2230B58BB09C
:101B00000C468DF8243009A92546B4FBF2F404FBF9
:101B10001253DBB2092B94BF30333733DBB2AA4206
:101B200001F8013DF0D9FFF7ACFF0BB030BD2DE956
:101B3000F04107460E4614462AB9BDE8F041036855
:101B4000C9B21B6818470A2A0DD100290CDA2D21C9
:101B5000FFF7B0FF2246054671423846FFF7CAFF3D
:101B60002844BDE8F081D2B2BDE8F041FFF7C2BF22
:101B7000FFF7DDBF38B50546FFF7D9FF0446284615
:101B8000FFF79CFF204438BD10B422B9026810BC96
:101B90001268C9B2104710BCD2B2FFF7ABBFFFF753
:101BA000F3BF38B50546FFF7EFFF04462846FFF7B9
:101BB00085FF204438BD38B50546FFF7E5FF0446EC
:101BC0002846FFF77BFF204438BD38B50546FFF7B0
:101BD000DBFF04462846FFF771FF204438BD0000B4
:101BE0002DE9F84F19460546104692461F469DF8C6
:101BF0002860FEF797FF38B14A492846FFF741FFB2
:101C000004462046BDE8F88F27F000444FF0FF322D
:101C100050462146444BFEF785FF48B94FF0FF324E
:101C200050462146404BFEF75FFF08B93F49E4E7C5
:101C30004FF06042504639463D4BFEF769FF08B110
:101C40003C49DAE74FF06042504639463A4BFEF7DE
:101C500041FF0028F4D10022002350463946FEF708
:101C600039FF044630B12D212846FFF723FF0446F3
:101C700007F100474FF0000B00204FF000082F49FC
:101C8000DFF8C0905FFA8BF39E4206D942464B467E
:101C9000FEF7D8FD0BF1010BF4E73B465246FEF789
:101CA000F1FA89468046FEF77BFF0746FEF726FCE1
:101CB00002460B4640464946FEF7E2FA0A228046B3
:101CC000894628463946FFF715FF044426B12846C1
:101CD0001B49FFF7D6FE04444FF0000ADFF864B05A
:101CE000013EF6B2FF2E8CD05B4652464046494636
:101CF000FEF77EFC89468046FEF72AFF0A2201464F
:101D000007462846FFF713FF04443846FEF706FC53
:101D100002460B4640464946FEF7B2FA80468946DF
:101D2000DEE700BF07C80008FFFFEF7F0BC8000811
:101D3000FFFFEF410FC80008FFFFEFC10000E03FC9
:101D40005FCF00080000244037B59DF81810054605
:101D50000091FFF745FF04462846FFF7AFFE2044F9
:101D600003B030BD10B5044600F0FAFAE060236815
:101D70002046DB689847002808DA00F0F1FAE368AB
:101D8000C01AA3689842F2D34FF0FF3010BDF8B5E7
:101D900006460D4617460024BC4207D03046FFF7E2
:101DA000E1FF031E02DB2B550134F5E72046F8BDA9
:101DB0002DE9F0410746884616461D4673B10024BA
:101DC0003846FFF7CFFF031E05DB434503D03355ED
:101DD0000134A542F4D12046BDE8F0811C46FAE763
:101DE00010B5044628B10AF053F890FBF4F303FB56
:101DF0001404204610BD884210B5044603DA081AC0
:101E0000FFF7EEFF0444204610BD000008B5044B68
:101E10002BB10448FFF750F908B1AFF3008008BDBB
:101E2000000000001C02002010B50446006809F004
:101E30005DFF204610BD10B50446006808B109F0EA
:101E400055FF0023C4E90133236010BD38B50446B3
:101E50000D46006801310AF04FF810B1C4E90005E1
:101E6000012038BD036810B5044623B143688B4296
:101E700001D3012010BD2046FFF7E8FF0028F9D06C
:101E8000A368002BF5D122681370F2E770B50E46F7
:101E9000114604461546FFF7E5FF20B92046FFF737
:101EA000CAFF204670BD31462068A5600AF080F860
:101EB000F7E738B5002304460D46C0E900338360D8
:101EC00039B10846FFF71AF8294602462046FFF7BF
:101ED000DDFF204638BD38B5054600680C4638B1F0
:101EE000096819B16A68A3689A420BD209F0FEFE2C
:101EF00023682B6063686B60A368AB600023C4E950
:101F0000003304E00AF054F8A368AB600023A36038
:101F100038BD884210B50B46044604D0096821B18B
:101F20009A68FFF7B3FF204610BDFFF784FFFAE77A
:101F3000002310B50446C0E900338360FFF7E9FFD2
:101F4000204610BD884210B5044601D0FFF7C3FFFC
:101F5000204610BD38B505460C4649B10846FEF787
:101F6000CDFF214602462846FFF790FF284638BDA0
:101F7000FFF761FFFAE770B505460E4609B9002084
:101F800070BD6AB1846814442146FFF76BFF0028D6
:101F9000F5D02868AB68314618440AF009F8AC60FF
:101FA0000120EDE7002307B501228DF8041001A9F7
:101FB0008DF80530FFF7DFFF03B05DF804FB10B5C7
:101FC0000446FFF7EFFF10B92046FFF734FF204625
:101FD00010BDFEE702F0E2BA704708B5032000F03A
:101FE00057FDBDE80840FFF7F5BF08B5AFF3008027
:101FF00005F02AFB06F06AF9FFF708FFFAE709F097
:102000006DBE09F073BE0000C0F30312042A03463C
:1020100009D80020054A32F9021B994204D0013048
:102020005028F8D170475020704700BF64C60008A0
:102030000F2803460BD8204A52F820204F2A24D9D3
:10204000A2F151010F2916D94FF0FF307047A0F1CE
:1020500051010F2916D8184A52F821204F2A14D9B5
:10206000502AF1D9602AEFD8134A0F2952F82120BB
:1020700098BFA2F15101104A52F821100F4A32F9CB
:10208000110005E04F2806D802460C4931F912002C
:10209000421C02D07047502808D8612B09D0632B0E
:1020A00014BF4FF0FF304FF4817070476028F4D8B0
:1020B000DAE740F20110EDE724C6000864C6000824
:1020C000002103E00B4B5B58435004310A480B4B93
:1020D00042189A42F6D30A4A02E0002342F8043B2F
:1020E000084B9A42F9D302F0ABFD09F0D3FDFFF79C
:1020F0007CFF704740D700080000002094010020BA
:1021000000020020D0250020FEE791420FD008D920
:102110000123891A8B40984208D30130C840013806
:10212000704720B10130511A8840F8E7002070470D
:10213000431E1F2B05D80C22044B1860044B1A6059
:1021400070477221034802F02FBD00BF0800002035
:102150000000002013C8000810B5FFF769FF431CFA
:102160000AD0064C216802F0C7F8054B21681A68AE
:10217000BDE81040FFF7C9BF002010BD00000020DF
:10218000080000204F282DE9F04104460F462DD8C5
:10219000274B33F910506A1C47D02846254902F0D6
:1021A000BFFBDFF8A480064658B3234AC5F30311EA
:1021B00052F8210005F00F0420FA04F3DB075FBF9B
:1021C0000123A340034342F821301C4BD8F80010F0
:1021D0001C6838462246FFF798FF19490246E3B2C9
:1021E0002846BDE8F041096802F014B9A0F1510396
:1021F0000F2B1AD8134A52F823200D4B33F91250E3
:10220000C9E72046012100F021F8D8F8001038462F
:102210000822FFF77AFF7F2898BF31462046BDE8A5
:10222000F04188BF012100F06BB8BDE8F08100BF2C
:1022300064C6000854C200082C03002004000020DB
:102240000C00002024C60008100000204F282DE9B3
:10225000F0410E4627D8254B33F91040621C42D07E
:10226000234DC4F3031755F8273004F00F0823FA61
:1022700008F3DB0710D520461E4902F051FB10B1D0
:10228000204602F017F9012303FA08F255F8273027
:1022900023EA020345F82730052E1ED8DFE806F0B2
:1022A0000D191315171B51380F281CD8124B53F852
:1022B00020200E4B33F91240D0E700212046BDE824
:1022C000F04102F03DBB1021F8E72021F6E70321A1
:1022D000F4E70121F2E70921F0E74921BDE8F041E7
:1022E000064802F061BCBDE8F08100BF64C600088A
:1022F0002C03002054C2000824C600086EC8000841
:102300004F2816D8124B33F91030C3F30312042AA6
:1023100098BF104803F00F0398BF50F822200E48D2
:1023200088BF002250F82330C3F30F2371B113612B
:10233000704751380F2897BF084B4FF0FF3353F8C1
:102340002020034B98BF33F91230DEE7536170470A
:1023500064C600081C00002040C9000824C600080C
:1023600002F0F4B802F0D4B838B5044648B102F02F
:10237000EDF80546FFF730FE02F0E8F8431BA342F4
:10238000F8D338BD7047000038B50E4B05461878B5
:102390004FF47A73B3FBF0F30B4A1068B0FBF3F021
:1023A00000F0DCFB044658B90F2D09D80246294637
:1023B0004FF0FF3000F07EFB2046044B1D6038BD1F
:1023C0000120FCE714000020340000201800002049
:1023D000074A08B51368032043F01003136000F0A8
:1023E00057FB0020FFF7D0FFFFF7CCFF002008BD10
:1023F00000200240034A044B11681B780B44136011
:10240000704700BF9825002014000020014B186879
:10241000704700BF98250020F7B5002604460D46FA
:102420000196FFF7F3FF236807469A68D20508D59F
:102430000120A36A84F8246043F02003A36203B060
:10244000F0BD5A68D60503D4DB6A13F4700F3AD096
:10245000394B02201E6801F057F82368374A196982
:10246000B6FBF0F61142364A4DD1D86835490842DC
:1024700049D11969114257D1DA68334B1A4214BF56
:10248000292314235E43019BB34220D26A1C05D04A
:1024900085B1FFF7BBFFC01BA8420BD8019B0133DE
:1024A0000193F0E7681C0FD025B1FFF7AFFFC01B09
:1024B000A84208D9A36A032043F00403A3620023BF
:1024C00084F82430BBE7226813689907EAD56FF0D7
:1024D000120322681360A36A43F40073A362936833
:1024E00003F46023B3F5602F24D1207B10BBA36AD3
:1024F00023F48073A362A36ADB041BD4A36A43F0B2
:102500000103A3629BE71969114203D1D9680E4AFE
:1025100011420BD019690D4A114209D1DB681342EF
:1025200014BFFC235423ADE72923ABE75423A9E7C9
:10253000FC23A7E7002082E73400002024499224EE
:10254000922449122449920092244900499224007D
:102550000368D86C70470000002373B5019390F8AE
:1025600024300446012B6CD0012380F824304D68C0
:102570000268062D086805EB850322D81F26556BD7
:10258000053B9E4025EA060500FA03F32B435363FF
:1025900009288B6800EB40054FF0070129D9D66860
:1025A0001E3DA94026EA0101AB400B43D360A0F1D8
:1025B0001003012B25D90020002384F8243002B019
:1025C00070BD0C2D4FF01F0509D8166B233B9D40A5
:1025D00026EA050500FA03F32B431363D8E7D66A0E
:1025E000413B9D4026EA050500FA03F32B43D362E5
:1025F000CEE71069A94020EA0101AB400B4313610B
:10260000D9E7114B9A4216D193681B02D3D4936831
:10261000102843F400039360CDD10C4B0C4A1B6887
:10262000B3FBF2F20A2353430193019B002BC2D068
:10263000019B013BF8E7A36A012043F02003A3625A
:10264000BAE70220BBE700BF0024014034000020AD
:1026500040420F00806A7047002373B501930368FE
:1026600004469A68D20702D5002002B070BD9A686D
:1026700042F001029A60124B124A1B68B3FBF2F35C
:102680000193019BC3B9FFF7C1FE064623689D680D
:1026900015F00105E8D1FFF7B9FE801B0228F5D936
:1026A000A36A012043F01003A362E36A84F8245074
:1026B00043F00103E362D8E7019B013BE0E700BF81
:1026C0003400002040420F0010B590F8243004463A
:1026D000012B54D0012380F82430FFF7BDFF0028E0
:1026E00049D1A36A274A23F4407323F0010343F43A
:1026F0008073A3622368934204D123494A6812F489
:10270000702F2ED1A26A22F48012A2625A6852055A
:1027100041BFA26A22F4405242F48052A262A26AED
:1027200012F480521CBFE26A22F00602E26200222A
:1027300084F824206FF002021A609A6802F4602282
:10274000B2F5602F13D10F4A934205D1A2F58062F2
:10275000526812F4702F0AD19A6842F4A0029A606B
:1027600010BDA26A42F48012A2624A68CFE79A685A
:1027700042F48012F3E7002384F82430F0E70220CB
:10278000EEE700BF002801400024014038B503688F
:1027900004469A68D20701D4002038BD9A6822F016
:1027A00001029A60FFF732FE054623689B68DB074B
:1027B000F2D5FFF72BFE401B0228F6D9A36A0120B1
:1027C00043F01003A362E36A43F00103E362E4E72A
:1027D000F8B5044600286ED0836A23B9C36280F836
:1027E000243001F02BFD2046FFF7D0FFA36A13F041
:1027F000100362D1002860D1A26AE569616822F401
:10280000885222F0020242F002022943A568A26225
:10281000227BB5F5807F41EA420137D0012D14BFFC
:1028200000274FF48077267D012E06D182BBA26956
:10283000013A47EA423646F400672268B5F5807FE0
:10284000566826F4694646EA0706566097681D4EA4
:1028500006EA070646EA0106966001D0012D02D17C
:102860002369013B1B05D56A25F470052B43D36210
:102870009268154B1340994213D10023E362A36A77
:1028800023F0030343F00103A362F8BD2F46CAE718
:10289000A26A42F02002A262E26A42F00102E2620F
:1028A000CBE7A36A23F0120343F01003A362E36AA9
:1028B00043F00103E3620120E7E7A36A43F010035A
:1028C000A362F8E7FDF7E1FFFE0E1FFF38B50446EF
:1028D000002850D0836A43F002038362FFF756FF5B
:1028E0000546002842D16FF01F02236823481A6072
:1028F0005968234A0A405A609968224A0A409A60F5
:10290000DA6802F07F42DA601A6902F040421A6126
:1029100059691D4A11405961996911409961D969F4
:102920001140D961196A11401962596A11405962FE
:10293000996A0A409A62DA6A02F07F42DA62DA6AD7
:1029400002F07F42DA621A6B02F040421A635A6B5D
:1029500002F040425A63996B014099639A6B0240BE
:102960009A63204601F09CFCE562A562002384F88E
:102970002430284638BD0125FBE700BF0000C0FF1A
:1029800000003FFFF00601FF00F0FFFF10B590F8D8
:1029900024300446012B11D0012380F82430FFF7A6
:1029A000F5FE38B9A36A23F4885323F0010343F0FA
:1029B0000103A362002384F8243010BD0220FCE749
:1029C000002373B5019390F824300446012B5AD0AC
:1029D000012380F82430FFF7D9FE0546002832D1C4
:1029E000A36A022023F4885323F0020343F0020376
:1029F000A362264B1E6800F087FDB6FBF0F676005A
:102A00000196019B1BBB2046FFF726FE22689368B8
:102A100043F008039360FFF7F9FC064623689A68C1
:102A2000120718D49A6842F004029A60FFF7EEFC8D
:102A3000064623689B685B071FD4A36A23F0030341
:102A400043F00103A362002384F8243012E0019BC9
:102A5000013B0193D5E7FFF7D9FC801B0A28DDD99C
:102A6000A36A012523F0120343F01003A36200239D
:102A700084F82430284602B070BDFFF7C7FC801BE5
:102A80000A28D6D9ECE70225F4E700BF340000207D
:102A900007490302CA6803F4E06322F4E062120407
:102AA000120C134343F0BF6343F40033CB60704711
:102AB00000ED00E0164B30B5DC68C4F30224C4F12D
:102AC0000703251D042B28BF0423062D4FF0FF35D7
:102AD00098BF002405FA03F388BF033C21EA0303EF
:102AE000A34005FA04F422EA0402002843EA0203A0
:102AF000ACBF00F16040074A4FEA0313DBB2ABBF43
:102B000000F5614000F00F0080F80033135430BD31
:102B100000ED00E014ED00E0002808DB012342098D
:102B200000F01F0003FA00F0014B43F82200704749
:102B300000E100E000280DDB0122430900F01F0046
:102B400002FA00F0044A203342F82300BFF34F8F0B
:102B5000BFF36F8F704700BF00E100E00138B0F1B4
:102B6000807F0AD2F021064B064A586082F8231073
:102B70000020072298601A6070470120704700BF4C
:102B800010E000E000ED00E0002809DB012243092D
:102B900000F01F0002FA00F0024A603342F82300FE
:102BA000704700BF00E100E0704708B5FFF7FCFF89
:102BB00008BD000008B590F82130022B03D0042393
:102BC0008363012008BD03681A6822F00E021A60B0
:102BD0001A6822F001021A60174A93421CD014327C
:102BE00093421BD0143293421AD0143293421AD01B
:102BF000143293421AD0143293420CBF4FF4801314
:102C00004FF080730D4A53604FF480730384436B1D
:102C10007BB198470020D5E70123F3E71023F1E7C4
:102C20004FF48073EEE74FF48053EBE74FF48033BB
:102C3000E8E71846C6E700BF08000240000002406F
:102C4000114AD36813F0100305D01049CB6943F043
:102C50000203CB611023D268500706D50B4943F01D
:102C60000403CA6942F00102CA61074AD169C9076F
:102C700008D50648C16941F00401C161D16921F05C
:102C80000101D161D360704700200240A0250020DF
:102C9000064B186910F0800007D0054A5A6002F10F
:102CA00088325A601869C0F3C01070470020024093
:102CB00023016745034A0020136943F08003136131
:102CC000704700BF00200240F8B50446FFF79EFBA6
:102CD000114D07462E46EB68D80712D4EB689906CB
:102CE00044BF2023EB60F368DA0606D4F369DB0700
:102CF00003D4F06810F0040007D0FFF7A1FF012013
:102D000003E0631CE7D00CB90320F8BDFFF77EFB9E
:102D1000C01BA042DFD9F7E7002002402DE9F84FA1
:102D2000254E1F46337E0546012B8846914640D0EE
:102D300001234CF250303376FFF7C6FFA8BB012DBC
:102D400003D0022D0CBF022504254FF0000A534684
:102D5000DFF868B04FEA0A14C4F12001A4F12002A0
:102D600007FA01F129FA04F4F3610C4327FA02F29D
:102D70001443DBF81020A4B242F00102CBF810207B
:102D80004CF2503028F81A40FFF79EFFDBF8102075
:102D900022F00102CBF8102038B90AF1010A5FFADB
:102DA0008AF295424FF00003D4D800233376BDE871
:102DB000F88F0220FBE700BFA02500200020024082
:102DC0000022064BDA61064B1A6942F004021A61CE
:102DD0001A6942F040021A61704700BFA025002026
:102DE000002002400022064BDA61064B1A6942F0CD
:102DF00002021A6158611A6942F040021A61704772
:102E0000A0250020002002402DE9F041224E054679
:102E1000337E8846012B3DD00124347603684CF282
:102E20005030022B13D1FFF74FFF20B101200023B8
:102E30003376BDE8F081FFF7C3FF4CF25030FFF767
:102E400043FF164A136923F004031361EFE7FFF70A
:102E50003BFF0028EAD14FF0FF33C8F8003020468E
:102E6000AF680E4CD5E9023203EB8223BB42DED9B8
:102E70003846FFF7B7FF4CF25030FFF725FF2369C4
:102E800023F00203236110B1C8F80070CFE707F503
:102E90008067E7E70220CCE7A02500200020024061
:102EA000044A08B55169014202D0506101F080FB2B
:102EB00008BD00BF000401402DE9F341054638B3C9
:102EC0000368DB0710D42B689F075ED42B681907B3
:102ED00000F195802B685A0700F1BF80E86900284F
:102EE00040F02C81002029E08F4C636803F00C0334
:102EF000042B07D0636803F00C03082B0AD1636826
:102F0000DE0307D523689C03DDD56B68002BDAD17F
:102F1000012013E06B68B3F5803F12D1236843F4BE
:102F200080332360FFF772FA064623689803CAD4F9
:102F3000FFF76CFA801B6428F7D9032002B0BDE8C4
:102F4000F0819BB9236823F480332360236823F442
:102F500080232360FFF75AFA064623689903B2D507
:102F6000FFF754FA801B6428F7D9E6E7B3F5A02FE2
:102F7000236803D143F480232360CFE723F4803315
:102F80002360236823F48023CBE7674C636813F046
:102F90000C0F07D0636803F00C03082B10D1636893
:102FA000DA030DD423689B0702D52B69012BAFD11F
:102FB00023686A6923F0F80343EAC203236085E7C4
:102FC0002A695A4B6AB101221A60FFF71FFA0646B6
:102FD00023689F07ECD4FFF719FA801B0228F7D962
:102FE000ABE71A60FFF712FA0646236898077FF5E9
:102FF0006DAFFFF70BFA801B0228F6D99DE7AA698F
:10300000494E4B4BDAB101221A60FFF7FFF9044633
:10301000736A9B070DD54FF4FA52464B1B68B3FBFE
:10302000F2F3019300BF019B5A1E0192002BF9D1CC
:1030300050E7FFF7EBF9001B0228E9D97DE71A609A
:10304000FFF7E4F90446736A9F077FF543AFFFF784
:10305000DDF9001B0228F6D96FE7334CE369D8008D
:1030600024D40127E36943F08053E361E36903F06B
:1030700080530093009B304E3368D90518D5EB6818
:10308000012B26D1236A43F001032362FFF7BEF927
:1030900041F288380646236A9B073FD5002F3FF44C
:1030A0001DAFE36923F08053E36117E70027E2E7F0
:1030B000336843F480733360FFF7A8F980463368C0
:1030C000DA05DCD4FFF7A2F9A0EB08006428F6D9F2
:1030D00033E7ABB9236A41F2883823F00103236256
:1030E000236A23F004032362FFF790F90646236A5C
:1030F0009807D3D5FFF78AF9801B4045F7D91CE71D
:10310000052B236A03D143F004032362BAE723F0BB
:1031100001032362236A23F00403B6E7FFF776F97D
:10312000801B4045B7D908E700100240000042422A
:103130008004424234000020007000402A4B5A684C
:103140001C4602F00C02082A3DD00023274E02281C
:1031500033602BD1FFF75AF90746236899011FD432
:103160002B6AB3F5803F05D16268A96822F400326A
:103170000A436260696A62680B4322F47412134363
:10318000636001233360FFF741F9054623689A0124
:103190003FF5A8AEFFF73AF9401B0228F6D9CCE676
:1031A000FFF734F9C01B0228D7D9C6E6FFF72EF97E
:1031B000054623689B017FF595AEFFF727F9401B75
:1031C0000228F6D9B9E601283FF4B8AE5B682A6A4E
:1031D00003F4803191427FF49BAE6A6A03F470136A
:1031E00093423FF47FAE93E60010024060004242FB
:1031F00030B5184B87B002AC03F1100522461868B1
:103200005968083303C2AB421446F7D140F2012398
:103210001149ADF804304B6803F00C02082A17D1AD
:10322000C3F3834206A80244DB0312F8102C0CD52A
:103230004B680A48C3F34043504306AA134413F8AB
:10324000143CB0FBF3F007B030BD05485043FAE73B
:103250000248F8E7CAC800080010024000127A00CD
:1032600000093D002DE9F0410D46044610B901204A
:10327000BDE8F081444A136803F007038B4228D36A
:1032800021688E0730D4CA0743D43F4A136803F03D
:103290000703AB4265D822683C4D12F0040F6CD195
:1032A000130706D56B68226923F4605343EAC2030F
:1032B0006B60FFF79DFF6B68354AC3F30313D35C64
:1032C000D840344B1860344B1868FFF75DF8002085
:1032D000CEE7136823F007030B431360136803F072
:1032E00007038B42C3D1CBE7284B11F0040F1EBF5D
:1032F0005A6842F4E0625A60080742BF5A6842F4D2
:1033000060525A605A68A06822F0F00202435A6084
:10331000B9E762681D4E012A33681AD113F4003FE1
:10332000A5D0736841F2883823F003031343736018
:10333000FFF76CF807467368626803F00C03B3EBA1
:10334000820FA2D0FFF762F8C01B4045F3D90320DB
:103350008EE7022A02D113F0007FE1E713F0020F9B
:10336000DEE7136823F007032B431360136803F0B1
:103370000703AB427FF47BAF8DE76B68E16823F412
:10338000E0630B436B608BE70020024000100240BB
:1033900080C900083400002018000020044B054AB2
:1033A0005B68C3F30223D35C034A1068D8407047BC
:1033B0000010024090C9000834000020044B054A68
:1033C0005B68C3F3C223D35C034A1068D8407047DC
:1033D0000010024090C90008340000200F23036051
:1033E0000B4B5A6802F0030242605A6802F0F00286
:1033F00082605A6802F4E062C2605B68DB0803F432
:10340000E0630361034B1B6803F007030B60704725
:10341000001002400020024003682DE9F341D90763
:10342000054620D5354CE369DA0032D40127E3693B
:1034300043F08053E361E36903F080530193019B00
:103440002F4E3368DB0526D5236A13F4407336D13B
:10345000236A6A6823F44073134323621FB1E3694C
:1034600023F08053E3612868830706D52349AB68BE
:103470004A6822F440421A434A6010F010001BD000
:103480001E4AE9685368002023F480030B4353600D
:1034900012E00027D4E7336843F480733360FEF70B
:1034A000B5FF80463368D805CED4FEF7AFFFA0EB5A
:1034B00008006428F6D9032002B0BDE8F0816A68EC
:1034C00002F440729A42C3D001200E4A236A10606F
:1034D000002023F4407110602162D907B8D5FEF7AF
:1034E00095FF41F288380646236A9A07B0D4FEF762
:1034F0008DFF801B4045F7D9DDE700BF001002407B
:103500000070004040044242024670B5344B86B021
:1035100002AD03F110062C4618685968083303C43D
:10352000B3422546F7D140F20123022AADF8043018
:1035300049D0102A03D0012A26D0002038E0294B98
:103540005968186810F0807032D0C1F3834206A821
:10355000024412F8100CCA0341BF5A6806A9C2F30C
:103560004042521844BF12F8141C1F4A5B684CBFFB
:10357000B2FBF1F21D4A5B0202FB00F018D40323F8
:103580004000B0FBF3F013E040F20231154A136A39
:103590001940B1F5817F1FD003F44073B3F5007F6C
:1035A00008D149F64043506A10F0020018BF18468F
:1035B00006B070BDB3F5407FBFD110684FF2244311
:1035C00010F40030F2E7FFF7F9FE064B5B68C3F337
:1035D000813301335B00D4E74FF40040E8E700BFDC
:1035E000CAC800080010024000127A0000093D001D
:1035F000036810B51A680446920708D55B689B07F4
:1036000005D501F0BFFA6FF0020223685A604FF44B
:103610000032024B5A610123637410BD0004014063
:10362000704710B50446002834D00023836290F818
:10363000513003F0FF021BB980F85020FFF7F0FF74
:103640000223226884F851301368A16923F04003F3
:103650001360D4E901300343E06803432069034366
:1036600060690343E0690343206A0343A06A03439C
:1036700001F40070090C034301F004011360516070
:10368000D369002023F40063D3610123606584F8CB
:10369000513010BD0120FCE7704710B5044680B1E1
:1036A0000223026880F85130136823F0400313604E
:1036B000FFF7F2FF0020606584F8500084F85100A5
:1036C00010BD0120FCE70000036A70B523F0010380
:1036D0000362036A446882690D6822F073022A4318
:1036E0008D6823F002032B430A4DA8420BD1CD680D
:1036F00023F008032B4324F44074D1E905563543E5
:1037000023F004032C43446082614A6842630362ED
:1037100070BD00BF002C0140036A70B523F48073B4
:103720000362036A4468C2690D6822F073022A4387
:103730008D6823F4007343EA05230B4DA8420DD195
:10374000CD6823F4006343EA052324F44054D1E90F
:103750000556354323F4806344EA05144460C2618E
:103760004A68C263036270BD002C0140036A30B531
:1037700023F480530362036A4468C2690D6822F42B
:10378000E64242EA05228D6823F4005343EA0533FA
:10379000064DA84202BF4D6924F4804444EA8514D2
:1037A0004460C2614A680264036230BD002C01407B
:1037B000022380F83D3003689A6802F00702062A67
:1037C0001EBF1A6842F001021A60012380F83D30E2
:1037D0000020704770477047036810B51A690446A7
:1037E00091070ED5DA6892070BD56FF002021A61C5
:1037F000012202779B699B0777D0FEF72FF9002300
:10380000237723681A69500710D5DA6851070DD558
:103810006FF004021A61022222779B69204613F49A
:10382000407F68D0FEF71AF90023237723681A69CE
:1038300012070FD5DA6810070CD56FF008021A616D
:1038400004222277DB69204699075AD0FEF706F951
:103850000023237723681A69D20610D5DA68D006C8
:103860000DD56FF010021A6108222277DB6920461D
:1038700013F4407F4BD0FEF7F1F800232377236841
:103880001A69D10708D5DA68D20705D56FF00102A9
:1038900020461A61FEF7B6F823681A69100608D5A3
:1038A000DA68110605D56FF0800220461A6100F033
:1038B00058FA23681A69520608D5DA68500605D501
:1038C0006FF0400220461A61FFF785FF23681A69EE
:1038D000910622D5DA6892061FD56FF020022046A5
:1038E000BDE810401A6100F03BBAFEF7B5F820467B
:1038F000FFF770FF83E7FEF7AFF82046FFF76AFF98
:1039000092E7FEF7A9F82046FFF764FFA0E7FEF76D
:10391000A3F82046FFF75EFFAFE710BD1A4A036821
:1039200090420AD0B0F1804F07D0A2F59432904275
:1039300003D002F58062904215D14A6823F07003EB
:103940001343114A90420AD0B0F1804F07D0A2F53C
:103950009432904203D002F58062904203D1CA684B
:1039600023F4407313434A6923F080031343036035
:103970008B68C3620B688362034B984204BF0B6978
:103980000363012343617047002C014010B50446D6
:10399000A0B190F83D3003F0FF021BB980F83C2045
:1039A00001F034FA0223206884F83D30211DFFF72E
:1039B000B5FF0123002084F83D3010BD0120FCE755
:1039C000036A70B523F010030362036A44688269D6
:1039D0000D6822F4E64242EA05228D6823F02003B6
:1039E00043EA05130B4DA8420DD1CD6823F08003A7
:1039F00043EA051324F44064D1E90556354323F026
:103A0000400344EA8504446082614A688263036239
:103A100070BD00BF002C014010B590F83C3004464A
:103A2000012B4FF0020010D00123082A84F83C300B
:103A300084F83D0018D009D872B1042A10D00123AF
:103A4000002084F83D3084F83C0010BD0C2AF6D1EB
:103A50002068FFF78BFEF2E72068FFF735FEEEE700
:103A60002068FFF7ADFFEAE72068FFF755FEE6E7BD
:103A700038B590F83C300446012B4FF0020010D0CE
:103A80000123082A84F83C3084F83D003FD009D84F
:103A9000DAB1042A2AD00123002084F83D3084F8CA
:103AA0003C0038BD0C2AF6D12068FFF75FFE236882
:103AB0000969DA6942F40062DA61DA6922F4806243
:103AC000DA61DA6942EA012230E02068FFF7FCFDA2
:103AD000236809699A6942F008029A619A6922F09A
:103AE00004029A619A690A439A61D4E72068FFF751
:103AF00067FF236809699A6942F400629A619A69CA
:103B000022F480629A619A6942EA0122ECE7206815
:103B1000FFF702FE23680969DA6942F00802DA61F8
:103B2000DA6922F00402DA61DA690A43DA61B2E79B
:103B300070B5046A124E24F001040462B042846934
:103B4000056A19D0B0F1804F16D0A6F59436B04270
:103B500012D006F58066B0420ED044F001021B017F
:103B600022F0F002DBB2134301F00A0125F00A0251
:103B700011438361016270BD24F003042243EEE728
:103B8000002C0140F8B590F83C300446012B0E465D
:103B900015464FF0020019D0012384F83D0084F847
:103BA0003C302068F36806C98DB9FFF7C1FF236870
:103BB000B1689A6922F00C029A619A690A439A6183
:103BC0000123002084F83D3084F83C00F8BD042D2A
:103BD000B66822D1056A090125F0100505628769DA
:103BE000D0F820E027F4407C1D034CEA022C2CF492
:103BF000704CADB22EF0A00E01F0A00145EA0C050C
:103C000041EA0E0185610162836923F440638361A7
:103C1000836943EA06268661D2E7082D056A1CD12E
:103C200025F480750562C769056A27F00307174305
:103C30001B010902DBB227F0F00725F4007501F43F
:103C400000711F432943C7610162C36923F00C035C
:103C5000C361C3691E43C661B2E725F4805505629E
:103C6000C569076A25F4407545EA02251B03090367
:103C700025F470459BB227F4005701F400512B4303
:103C80003943C3610162C36923F44063C361C369FB
:103C900043EA0626DFE710B50124036A01F01F019D
:103CA0008C4023EA04030362036A8A401A430262D7
:103CB00010BD000010B5044601220068FFF7EBFFBD
:103CC0002368094A0020934202BF5A6C42F4004222
:103CD0005A649A6802F00702062A1EBF1A6842F068
:103CE00001021A6010BD00BF002C0140FFF7E2BFC7
:103CF00010B5044601220068FFF7CDFF23680020BD
:103D00009A6802F00702062A1EBF1A6842F00102F2
:103D10001A6010BD10B50424036A01F01F018C4025
:103D200023EA04030362036A8A401A43026210BD55
:103D300010B5044604220068FFF7ECFF236800205A
:103D40005A6C42F400425A649A6802F00702062A4A
:103D50001EBF1A6842F001021A6010BDFFF7E8BFEB
:103D6000704770470368DA6822F49072DA605A6923
:103D700022F001025A61202380F83A307047000097
:103D800038B505460368C1681A69192422F44052FF
:103D90000A431A6182680069D9680243686921F49C
:103DA000B05121F00C0102430A43DA605A69A96953
:103DB00022F440720A435A610D4A934214D1FFF72C
:103DC000FDFA44436B6864229B00B4FBF3F4B4FB3C
:103DD000F2F102FB11431B013233B3FBF2F328680B
:103DE00003EB0113836038BDFFF7D8FAE9E700BFA2
:103DF00000380140704710B5044640B390F83930A0
:103E000003F0FF021BB980F83820FFF7F3FF2423EB
:103E1000226884F83930D368204623F40053D360F5
:103E2000FFF7AEFF236800201A6922F490421A615E
:103E30005A6922F02A025A61DA6842F40052DA60C2
:103E40002023E06384F8393084F83A3010BD012033
:103E5000FCE710B5044660B390F8393003F0FF0278
:103E60001BB980F83820FFF7C5FF2423226884F8A7
:103E70003930D368204623F40053D360FFF780FF26
:103E8000236800201A6922F490421A615A6922F0CC
:103E900022025A615A6942F008025A61DA6842F411
:103EA0000052DA602023E06384F8393084F83A3035
:103EB00010BD0120FCE790F83930202B18D1A9B1B2
:103EC000A2B190F83830012B12D0C2840023828432
:103ED000212201620168C36380F8383080F83920FC
:103EE000CA68184642F08002CA60704701207047D5
:103EF0000220704790F83A30202B20D1E9B1E2B18E
:103F000090F83830012B1AD0C285828500232222F6
:103F1000C36380F83A20026880F838308162D16843
:103F2000184641F48071D160516941F0010151613D
:103F3000D16841F02001D160704701207047022014
:103F4000704710B590F83A30222B33D1816804695C
:103F5000B1F5805F836A026823D15268ECB9C2F37D
:103F6000080223F8022B8362C48D013CA4B2C485ED
:103F70008CB90368DA6822F02002DA60DA6822F489
:103F80008072DA605A6922F001025A61202380F8B7
:103F90003A3001F0D5F800200DE0D2B223F8012B21
:103FA000E1E7591C526881620CB91A70DCE702F033
:103FB0007F02FAE7022010BD036870B51A68044654
:103FC0001607D9685D6907D1960659D58D0657D56C
:103FD000BDE87040FFF7B5BF05F0010001F4907532
:103FE00005434DD0D60705D5CD0542BFE36B43F061
:103FF0000103E363530704D518B1E36B43F00203F5
:10400000E363960704D518B1E36B43F00403E3635D
:10401000150704D518B1E36B43F00803E363E36BC2
:104020004BB3900604D5890602D52046FFF789FFD9
:10403000236820465B69E56B03F0400305F0080543
:104040001D4319D0FFF78EFE23685A6952060FD51B
:104050005A69606B22F040025A6148B1254B4363B4
:10406000FEF7A8FD38B1606BBDE87040436B1847A0
:10407000204601F07BF870BD01F078F8E563FAE7BF
:10408000160628D50D0626D594F83920212AF2D116
:10409000A168226AB1F5805F18D11188C1F30801C7
:1040A0005960216981B902322262E28C013A92B2EE
:1040B000E284002ADFD1DA6822F08002DA60DA686E
:1040C00042F04002DA60D6E70132EDE7511C21628E
:1040D00012785A60E9E75006CDD54A06CBD5DA68A2
:1040E000204622F04002DA60202384F8393001F0C3
:1040F0002AF8C0E7F940000808B50023406AC385E4
:10410000C38401F033F808BD90F83830012B11D08A
:104110002423026880F83930D36823F00C0343F07D
:104120000803D360202380F83930002380F838302A
:10413000184670470220704790F83830012B11D094
:104140002423026880F83930D36823F00C0343F04D
:104150000403D360202380F83930002380F83830FE
:10416000184670470220704790F8392090F83A00BE
:104170001043704786B0042841D8DFE800F00310F0
:104180001C2834001F4B20489A6942F004029A61AF
:104190009B6903F004030193019B06B07047194B20
:1041A0001A489A6942F008029A619B6903F0080371
:1041B0000293029BF1E7134B15489A6942F01002F3
:1041C0009A619B6903F010030393039BE5E70D4B92
:1041D00010489A6942F020029A619B6903F020031B
:1041E0000493049BD9E7074B0B489A6942F04002BD
:1041F0009A619B6903F040030593059BCDE700207E
:10420000CBE700BF0010024000080140000C014055
:1042100000100140001401400018014008B5064993
:1042200000F0A0FCC0F3C430831E022B96BF8000B8
:104230000020043808BD00BF54C200080368134AB8
:1042400082B0934212D1124B9A6942F400729A6181
:104250009B6903F400730093009B0E4BB3F90000BD
:10426000C30511D40C4902B000F038BC0B4A93428C
:10427000F3D1074B9A6942F480629A619B6903F417
:1042800080630193019BE8E702B07047002401407E
:10429000001002403000002088C1000800280140C2
:1042A0000368124A93420DD1114BDA6842F400724E
:1042B000DA60DA6822F40072DA609A6922F4007235
:1042C0009A6170470B4A9342FBD1094BDA6842F47A
:1042D0008062DA60DA6822F48062DA609A6922F435
:1042E00080629A619A6922F48062E9E700240140C1
:1042F0000010024000280140F0B591B00446302281
:10430000002104A807F016FD0023E205CDE90133E2
:104310000393ADF802300FD5B4F5817F0CDC3A4B36
:10432000049340F201139C421CD0B4F5817F0CBF72
:1043300011250025072610E03449204600F0EEFB49
:1043400032490490204600F00DFCC0F3C4356B1ECA
:10435000102B4FF0020688BF0025049B23B90020D4
:1043600011B0F0BD1025E5E7002301274FF46022CE
:10437000CDE905338DF81C308DF824300A930E9367
:104380000C938DF83430224B04A808970B921C80B4
:10439000FEF71EFA0028E2D101A904A8CDE90157D1
:1043A0000396FEF7D9F80028D9D104A8FEF708FB38
:1043B0000028D4D104A8FEF787F90028CFD10A211C
:1043C00004A8FEF729F80028C9D104A8FEF742F98D
:1043D000830505D504A8FEF7BBF880B2ADF802004E
:1043E00004A8FEF7D3FA0028B9D104A8FEF76EFAA4
:1043F0000028B4D1044A936823F400039360BDF805
:10440000020080B2ACE700BF0024014088C1000870
:10441000300000202DE9F84F894624499846174678
:10442000064600F07BFBFDF75DF9214C054654F88C
:1044300020307BB91D49304600F070FB8346A82030
:10444000FDF7DDFD82465946FDF788F954F8253021
:10445000C3F800A054F82530144930461C6800F019
:1044600081FBC0F3C43529462046FDF733F9052802
:10447000824605D03346052229462046FDF774F8CA
:10448000022249462046FDF7F3F943463A462946BB
:104490002046FDF70FFABAF1050F04D02046BDE81B
:1044A000F84FFDF73FB8BDE8F88F00BF54C20008D1
:1044B0001C030020F8B51449064600F02FFBFDF759
:1044C00011F9124C054654F8203073B90E493046A4
:1044D00000F024FB0746A820FDF791FD064639466B
:1044E000FDF73CF954F825301E6054F825301C685F
:1044F00044B12046FDF712F92046BDE8F840A82156
:10450000FDF77FBDF8BD00BF54C200081C030020AA
:1045100037B50D4D2B68FDF779FF6C68AB6801343A
:10452000E31A01932B68DB0304D5FDF76FFFAB683B
:10453000E31A01934FF47A72019B5343B3FBF4F3F4
:1045400002FB003003B030BD10E000E0FDF75EBFBD
:10455000704708B5FDF74EFFFEF727FBFFF7F8FFA2
:1045600008BD00000B4BDA68D2015EBFDA6842F08A
:104570008072DA600022084B5A601A6842F0010229
:104580001A6000BF00BF00BF5868B0FA80F0400951
:10459000704700BFF0ED00E0001000E008B5FFF745
:1045A000E1FFFDF715FFBDE80840FCF75DBD000029
:1045B0000023012803F1010202D013464008F8E766
:1045C0001421DBB24B43044A181D1044816811B119
:1045D0001A44136918477047400300200120FEF772
:1045E0005FBC0220FEF75CBC0420FEF759BC08202B
:1045F000FEF756BC1020FEF753BC38B50524202525
:10460000A8B2FEF74DFC013C4FEA4505F8D138BD94
:1046100038B506244FF48065A8B2FEF741FC013C92
:104620004FEA4505F8D138BD0721204B0622197500
:10463000082183F82810092183F83C100A2183F807
:10464000501017211A7083F86410002283F8781034
:1046500083F88C1083F8A01083F8B4102821DA6056
:104660001A625A639A64DA651A67C3F88420C3F839
:104670009820C3F8AC20C3F8C02083F8C810C3F852
:10468000D42083F8DC10C3F8E82083F8F010C3F8D6
:10469000FC2083F80411C3F8102183F81811C3F823
:1046A000242183F82C11C3F83821704740030020DF
:1046B00038B5054CA4F5A075143C201DFCF77EFE12
:1046C000AC42F9D138BD00BF800400207B4B82B0E2
:1046D0009A69013842F001029A619B6903F0010373
:1046E0000193019B23282CD8DFE810F024002D0033
:1046F00034003B00400047004C00530058005F006E
:1047000068006D0074007D008200890092009B00AB
:10471000A000A700B000B500BC002B002B002B00B0
:10472000C100C8002B002B002B002B00CD00D200B5
:10473000D900E000624A536843F0E06343F00103AC
:10474000536002B070475E4A536823F0010343F0A0
:10475000E063F5E75A4A536843F0E06343F002032D
:10476000EEE7574A536823F00203F0E7544A5368D0
:1047700043F0E06343F00403E2E7514A536823F057
:104780000403E4E74E4A536843F0E06343F0080350
:10479000D6E74B4A536823F00803D8E7484A5368E2
:1047A00043F0E06343F03003CAE7454A536823F01F
:1047B000300343F0E06343F01003C1E7404A53681D
:1047C00023F03003C3E73E4A536843F0E06343F00D
:1047D000C003B5E73A4A536823F0C00343F0E063EF
:1047E00043F04003ACE7364A536823F0C003AEE71A
:1047F000334A536843F0E06343F44073A0E7304A20
:10480000536823F4407343F0E06343F4007397E785
:104810002B4A536823F4407343F0E06343F48073FE
:104820008EE7274A536823F4407390E7244A53687D
:1048300043F0E06343F4406382E7214A536823F482
:10484000406343F0E06343F4006379E71C4A536834
:1048500023F440637BE71A4A536843F0E06343F470
:1048600080536DE7164A536823F480536FE7144A68
:10487000536843F0E06343F4004361E7104A536830
:1048800023F4004363E70E4A536823F0E06357E7DD
:104890000B4A536823F0E06343F0807350E7084A03
:1048A000536823F0E06343F0007349E7044A536818
:1048B00023F0E06343F0806342E700BF0010024052
:1048C0000000014070B50D0E445991FAA1F3B3FAFE
:1048D00083F30F269B0006FA03F324EA030491FAFC
:1048E000A1F1B1FA81F1890002FA01F121434151AC
:1048F00070BD70B50D0E445991FAA1F3B3FA83F36C
:1049000004269B0006FA03F324EA030491FAA1F1BA
:10491000B1FA81F1890002FA01F12143415170BDE0
:10492000431C04D00C3131F90C3C5A1C01D100203D
:104930007047834201F10C01F5D10120704700005E
:10494000624B2DE9F74F00F00F0253F82250431C41
:1049500007460E4601F00709C1F3062BC0F3031406
:104960001FFA80F803D14821594800F01DF920466C
:10497000FFF700FCB9F1010F04464FEA156A45D173
:1049800050F80A1095FAA5F2B2FA82F203239200C7
:1049900003FA02F221EA020295FAA5F0B0FA80F0D9
:1049A000800083401343012244F80A302946204600
:1049B00009F1FF39FFF786FFB9F1010F06D816F0AC
:1049C000080218BF04222946FFF793FF54F80A1083
:1049D000C6F3011695FAA5F2B2FA82F39A000F23F4
:1049E00093400B4095FAA5F2B2FA82F2012E4FEAFB
:1049F000820223FA02F322D0022E4BD0082B31D1AF
:104A0000042229462046FFF75DFF2BE0B9F1030F92
:104A10000DD8DFE809F0021207105846FFF756FEDE
:104A20000822C3E75846FFF751FE0922BEE78D2151
:104A3000274800F0B9F80022B8E74A46B6E7042B49
:104A400004D1082229462046FFF73CFFE2682B0AE2
:104A500022EA152293FAA3F5B5FA85F301259D40C4
:104A60001543E5601B4B9A6942F001029A619B690C
:104A700003F001030193019BA8F10D03012B17D84B
:104A8000154A536823F0E06343F08063536003B03A
:104A9000BDE8F08F042B04D1082229462046FFF7F9
:104AA00011FFE3682A0A23EA152592FAA2F2D8E751
:104AB0000F2F04D0A8F11308B8F1010FE7D8064A68
:104AC000536823F0E06343F00073DFE740C9000858
:104AD000DBC800080010024000000140431C06D162
:104AE0007047834202D18968FFF72ABF0C31B1F9C0
:104AF00000305A1CF5D1B921014800F055B800BF6B
:104B0000DBC80008B1F900305A1C01D10020704701
:104B1000834201D1486870470C31F3E7431C01D050
:104B2000FFF7F0BF002070474B6813B94FF0FF301C
:104B30007047834202D1B1F9000070470C31F3E7AE
:104B400008B1FFF7F1BF4FF0FF3070470346B1F9EE
:104B50000000421C00D17047984201D1886870471C
:104B60000C31F4E7431C01D0FFF7F0BF7047034658
:104B70008B42084604D01BB100290CBF1846002008
:104B800070470000034B1B6813B1034A10681847B5
:104B9000704700BF80040020980400200148FEF701
:104BA00027BD00BF84040020FEE7000008B54FF4D5
:104BB00080620249024807F0AFF808BD00FC010816
:104BC000A004002010B50446FFF7F0FF014B185D6C
:104BD00010BD00BFA0040020002370B586B0CDE951
:104BE000013301230F4C0593CDE90334FEF750F850
:104BF000A8B934220C4B01A9DA6002A8FEF704F927
:104C000058B90A4D0A4E2146F5E802230320FEF763
:104C100085F810B90834B442F5D1FEF74BF806B068
:104C200070BD00BF00FC010800200240A00400206D
:104C300000000208014B1954FFF7CEBFA00400206A
:104C40000F4B1A6842F001021A6059680D4A0A4077
:104C50005A601A6822F0847222F480321A601A684C
:104C600022F480221A605A6822F4FE025A604FF43D
:104C70001F029A604FF00062034B9A60704700BFBA
:104C8000001002400000FFF800ED00E0043870471B
:104C900003681D4A84B093420BD11C4B9A6942F4BD
:104CA00000629A619B6903F400630093009B04B067
:104CB0007047B3F1804F10D0154A934218D0154A6F
:104CC0009342F4D1114BDA6942F00402DA61DB69F4
:104CD00003F004030393039BE9E70C4BDA6942F00A
:104CE0000102DA61DB6903F001030193019BDEE756
:104CF000064BDA6942F00202DA61DB6903F0020373
:104D00000293029BD3E700BF002C01400010024039
:104D100000040040000800400368124A934206D194
:104D200002F56442936923F4006393617047B3F121
:104D3000804F06D00C4A934209D00C4A93420BD0C4
:104D400070470B4AD36923F00103D3617047084AC7
:104D5000D36923F00203F8E7054AD36923F004037B
:104D6000F3E700BF002C01400004004000080040B1
:104D70000010024008B5431C01460DD00D4B98426F
:104D800012D00CD8B0F1804F10D0A3F580639842B8
:104D90000ED00948FFF708FF6FF00D0008BD074B64
:104DA0009842F6D11920F9E71E20F7E71C20F5E715
:104DB0001D20F3E70008004098C90008002C0140BE
:104DC00008B5431C01460DD00D4B984212D00CD8AB
:104DD000B0F1804F10D0A3F5806398420ED00948FF
:104DE000FFF7E2FE6FF00D0008BD074B9842F6D1C9
:104DF0001B20F9E71E20F7E71C20F5E71D20F3E74D
:104E00000008004098C90008002C014038B504464D
:104E1000FFF73EFF0068FFF7ADFFD4E91012FDF782
:104E200049FE2068FFF7A6FFFDF776FE2068FFF732
:104E3000C7FF05462068FFF79DFF85420DD020681B
:104E4000FFF7BEFFD4E91012FDF734FE2068FFF72C
:104E5000B7FFBDE83840FDF75FBE38BD08B5431C5D
:104E600001460FD00A4B98420ED008D8A3F59233D2
:104E700098420BD020F48063B3F1804F06D00548F0
:104E8000FFF792FE002008BD0220FCE70120FAE7B0
:104E9000002C0140B0C900082DE9FF4704468946AF
:104EA000B0F94C00484990461F46DDF830A0FFF7A6
:104EB00035FE46490546B4F94E00FFF72FFE06467B
:104EC000002D7ED0B4F94E30013301D0002878D0C7
:104ED00031462846FFF74BFE2060002871D03C4B3E
:104EE000984238D103F55843DA6842F48042DA60D8
:104EF000DA6822F48042DA609A6942F480429A6168
:104F00009B6903F480430193019B2523A4F850304F
:104F10002D49B4F94C00FFF7E1FD26B12B49B4F956
:104F20004E00FFF7DBFD94F851202A4B201D43F87B
:104F3000220023680C22C4E901390023C4E9038A52
:104F4000C4E9062367612362002E35D104B0BDE8B1
:104F5000F047FEF77EBF204B984215D103F5E633AC
:104F60001A6942F400321A611A6922F400321A6195
:104F7000DA6942F40032DA61DB6903F40033029348
:104F8000029B4FF49373C1E7144B9842C0D1144D68
:104F90002B6943F480232B612B6923F480232B613D
:104FA000EB6943F48023EB61EB6903F48023039303
:104FB000039B40F22723A9E704B0BDE8F047FEF7C2
:104FC0001ABF04B0BDE8F08760C5000800C500083E
:104FD00000380140A0080020004400400048004084
:104FE0000010024008B1FFF757BF704708B5074BE4
:104FF00090F8512053F82200FFF7B6F800F0220095
:10500000A0F122035842584108BD00BFA00800206B
:1050100008B5074B90F8512053F82200FFF7A4F889
:1050200000F02100A0F121035842584108BD00BF03
:10503000A008002070B50E46054610B94FF0FF30AD
:1050400070BDFFF7D3FF04460028F7D1294611F8B9
:10505000523F0122337095F85100034B53F8200062
:10506000FEF748FF2046EBE7A008002070B50E468B
:105070000446F0B1FFF7BAFF0546D0B994F95000E5
:105080006664FDF757FD94F851000A4B04F1520194
:10509000012253F82000FEF72DFF94F950002A4614
:1050A0000121FDF707FD94F95000BDE87040FDF7C0
:1050B00033BD70BDA008002010B50446E8B181647E
:1050C00090F95000FDF736FDB4F86230A16D9BB247
:1050D00094F851001944094B012253F82000FEF7BF
:1050E000EAFE94F9500000220121FDF7E3FC94F957
:1050F0005000BDE81040FDF70FBD10BDA008002016
:1051000050B1B0F94E30013306D190F85120034B25
:1051100053F82200FEF7F8BF704700BFA008002038
:1051200050B1B0F94E30013306D190F85120034B05
:1051300053F82200FFF700B8704700BFA008002016
:10514000036C0438184710B5436C0446043898477C
:1051500001300AD0B4F85E30616D9BB22046BDE8E4
:10516000104001221944FEF7A6BE10BD1FB503680A
:105170000446186810F0010013D0002200921A684B
:1051800000925B680093009B201FFFF72FFF40BB3E
:105190000122204604F14E0104B0BDE81040FEF7A4
:1051A000A9BE196811F0020106D001901A68019297
:1051B0005B680193019BE7E71A6812F0040206D0CE
:1051C00002911A6802925B680293029BDCE71968FD
:1051D0000907D9D503921A6803925B680393039B6E
:1051E000D2E704B010BD000008B52520FDF7CCFCC7
:1051F000024B1868BDE80840FEF7DEBEA00800209C
:1052000008B52620FDF7C0FC024B5868BDE80840F1
:10521000FEF7D2BEA0080020272008B5FDF7B4FC99
:10522000034B986818B1BDE80840FEF7C5BE08BD3D
:10523000A008002003460A4910B508680344EFF3AC
:105240000882934205D90C224FF0FF30054B1A60BB
:1052500010BD054A054C121B9342F4D20B60F7E7D0
:1052600038000020C025002000500020000400006D
:10527000FEE700001622024B4FF0FF301A60704725
:10528000C02500200120704742884378007843EA17
:10529000022340EA032070470B0A017043700B0C95
:1052A000090E8370C1707047024400F8011B9042E0
:1052B000FBD17047034610B5024413F8010B11F8F7
:1052C000014B9342A0EB040001D00028F5D010BDA3
:1052D00043690239023B8B4283BF4389806A01FBE9
:1052E00003000020704702684AB1134613F8011BFF
:1052F00020290BD93A29F9D1911C8B4202D04FF0C9
:10530000FF3070471278302AF9D1036000207047CF
:1053100001380A4411F8013B914200F8013FF9D1EC
:10532000704770B500F13006C26A04460123314669
:10533000407801F097FB054688B9E16A236AA269C3
:10534000CB1A9342E07008D2A378022B05D10A440D
:1053500001233146607801F085FB284670BD0125A8
:10536000FBE738B5C36A04468B420D4614D0C378B8
:105370006BB92A460123607804F1300101F064FB27
:1053800000281CBF4FF0FF350120E56238BDFFF754
:10539000C8FF0028FAD1ECE70020F7E738B5002372
:1053A000C3704FF0FF33C3620546FFF7DAFF0446D0
:1053B00018BB95F82F2295F82E3243EA02234AF6BD
:1053C000552293421BD195F83030EB2B03D0183384
:1053D000DBB2012B15D803220B4905F16600FFF75C
:1053E00069FF40B10522094905F18200FFF762FF1C
:1053F000002818BF0224204638BD0424FBE70324FC
:10540000F9E70224F7E700BFCCC90008D0C90008BB
:1054100000232DE9F0430B6085B00F461546FFF7DA
:1054200062FF061EC0F23681A24B53F82640002CC4
:1054300000F032813C60237805F0FE056BB16078A6
:1054400001F0FEFAC70708D41DB110F0040500D022
:105450000A25284605B0BDE8F0830023F0B223708A
:10546000607001F0EFFAC10700F118810DB1420739
:10547000EED400212046FFF791FF022840F0EF8094
:105480006E46354604F5FB7104F2362711F8040C1C
:1054900010B10846FFF7F8FE10318F4245F8040BB3
:1054A000F4D1002556F8048BB8F1000F00F0CE803F
:1054B00041462046FFF772FF012800F2C88094F8A9
:1054C0003C2094F83B3043EA0223B3F5007F40F0E0
:1054D000CA8094F8470094F8466056EA002604D142
:1054E00004F15400FFF7D0FE064694F84050A66140
:1054F0006B1E012BA57000F2B68094F83D904B46D0
:10550000A4F80A90002B00F0AE8009F1FF3313EAF3
:10551000090F40F0A88094F8423094F8417047EAAF
:1055200003273B0739B2278140F09D8094F844005F
:1055300094F8433053EA002003D104F15000FFF700
:10554000A3FE94F83F3094F83E2052EA032200F084
:105550008A8006FB05FE02EB171CF4446045C0F090
:105560008280A0EB0C034B45B3FBF9F07BD3524B8D
:10557000984278D84FF6F573984240F291804FF0F8
:105580000309851C42440CEB0803B9F1030F656164
:10559000C4F81C802262A3626AD194F85B2094F85C
:1055A0005A3043EA0223194309B200295BD104F1BE
:1055B0005C00FFF769FEAD00606205F2FF15B6EB17
:1055C000552F50D34FF0FF33C4E903338023B9F193
:1055D000030F237130D194F8612094F8603043EACE
:1055E0000223012B28D1204608F10101FFF7B9FE63
:1055F00010BB94F82F2294F82E32207143EA022334
:105600004AF65522934217D104F13000FFF73CFED1
:105610002A4B984210D104F50570FFF735FE284B50
:10562000984209D104F50670FFF72EFE206104F5BB
:105630000770FFF729FEE060224A0025138884F8EE
:10564000009001339BB21380E38002E70320013511
:10565000042D7FF427AF042805D10125F9E604289D
:10566000FBD0012801D90D25F3E64FF0000826E70D
:10567000002FF8D0B9F1020F4FEA450318BF5B19AC
:10568000724414BF05F001051D46626218BF05EBA8
:10569000530592E70B25DCE60C25DAE60325D8E670
:1056A00040F6F57948458CBF4FF002094FF00109EB
:1056B00067E700BFB0080020F5FFFF0F52526141BD
:1056C00072724161AC08002001292DE9F0470646BD
:1056D0000C46174671D943698B426ED90378022B69
:1056E0003FD0032B4FD0012B67D101EB5108016A4A
:1056F00001EB5821FFF735FE054638BB14F00104D5
:1057000006F1300908F1010AC8F3080817BF19F8B3
:105710000830FBB203F00F023B011CBF03F0F003A3
:10572000134309F808300123316A3046F37001EB66
:105730005A21FFF716FE054640B9CAF3080A44B1DC
:10574000C7F3071709F80A700123F3702846BDE86C
:10575000F08719F80A30C7F3032723F00F031F431C
:10576000F0E7016A01EB1421FFF7FBFD0546002875
:10577000ECD1640006F1300304F4FF741F551819CE
:105780003F124770E0E7016A01EBD411FFF7E9FD32
:1057900005460028DAD1A40006F1300304F4FE74B3
:1057A0001C442046FFF770FD27F0704700F0704161
:1057B00039432046FFF770FDC6E70225C6E70129F9
:1057C000F8B505460C4652D9436999424FD2037841
:1057D000022B29D0032B38D0012B48D101EB5106E5
:1057E000016A01EB5621FFF7BCFD10B14FF0FF300D
:1057F000F8BD296A771CC6F308062E44284601EB3B
:10580000572196F83060FFF7ACFD0028EED1C7F3C2
:1058100008073D4495F83000E30746EA00204CBFF6
:105820000009C0F30B00E3E7016A01EB1421FFF765
:1058300098FD0028DAD16400303504F4FF742B1988
:105840005B78285D40EA0320D2E7016A01EBD411BE
:10585000FFF787FD0028C9D1A40005F1300004F44A
:10586000FE742044FFF710FD20F07040C0E70120D7
:10587000BEE72DE9F04180460F46056849B9EE685C
:10588000C6B16B69B34298BF01262B69A3B9002446
:1058900006E02846FFF793FF0128044603D80124B9
:1058A0002046BDE8F081421C51D06B698342F7D895
:1058B0003E46EAE70126E8E7BE4215D16B69741C53
:1058C000A34298BF0224D8F800002146FFF777FFD3
:1058D0000128E4D0431C3AD0D8B1EB68012B03D99E
:1058E0006A69934238BF1E4634466B690134A3424D
:1058F00002D8012ECBD902242146D8F80000FFF7A8
:105900005EFF40B10128CAD0013020D0B442ECD1B2
:10591000BDE7002CE8D04FF0FF3221462846FFF7C4
:10592000D3FE90B957B9D5E90432023A9342EC60FC
:1059300010D92B7943F001032B71B1E72246394688
:105940002846FFF7C1FE0028EDD00128A7D14FF06F
:10595000FF34A5E7013B2B61EBE738B500238268F4
:105960000446056803619AB92B78022B01D96B6A4A
:105970006BB92B890BB9022038BD6B6AA361A3698F
:105980006261002BF7D030350020E561F4E71A465C
:105990006B8963B911462068FFF711FF431C02466B
:1059A0000BD00128E7D96B699842F3D3E3E711469E
:1059B0002846FFF78DFCA061E1E70120DCE770B528
:1059C000C3780446002B44D12378032B38D12679A1
:1059D000012E35D104F130054FF400720021284624
:1059E000FFF762FC552384F82E32AA2384F82F3265
:1059F00052234122722184F8303084F831306123FF
:105A000084F8332084F8323084F8162284F8173270
:105A100084F8141284F8151204F506702169FFF752
:105A20003BFCE16804F50770FFF736FCE26933469A
:105A3000013229466078E26201F014F800232371F4
:105A400000226078114601F01BF8003818BF0120D1
:105A500003E0FFF766FC0028B6D070BDF8B5C37848
:105A600004460D46D3B929462046FFF731FC04F120
:105A70003007E06206464FF4007200213846FFF717
:105A800013FC00256389AB420ED9012339466078A7
:105A9000721900F0E7FF38B90135F3E7FFF741FC71
:105AA0000028E0D0012003E06089401B18BF0120DE
:105AB000F8BD2DE9F843076904462037B7F5001F04
:105AC00024BF0023836183698946066873B1C7F3E5
:105AD0000808B8F1000F39D141690133836139B940
